:020000040000FA
:1000000001288B0107309F008316FF308500860191
:10001000831227208030572083120313A5018312F7
:1000200003170130A0001E30A1008312031325081E
:100030002721003A031D1D2823285B208312031368
:10004000A50AC7200F2801305720C7200A28CD2035
:100050000330860006160612CD20033086000616F1
:100060000612CF200330860006160612CF2002307B
:10007000860006160612D220283057200830572056
:1000800001305720063057200C30572008008601D9
:10009000831608308600831206120613861606168B
:1000A0000608A1000612D820A1194F280800A000B8
:1000B000A40106135E28A000241406174720860119
:1000C0008316003086008312861206132418061742
:1000D000F0308605200E0F39860406160000061241
:1000E000F030860520080F39860406160000061237
:1000F0000800803057202A305B2053305B20453089
:100100005B204E305B2041305B2049305B2020304B
:100110005B2041305B204E305B2043305B20483019
:100120005B2049305B2045305B2054305B20413000
:100130005B202A305B200800C33057202A305B2028
:10014000CA2050305B20CA2049305B20CA2043308F
:100150005B20CA2031305B20CA2036305B20CA20A9
:1001600046305B20CA2036305B20CA2032305B200C
:10017000CA2038305B20CA202A305B20CA20080001
:10018000C720C720C720C7200800C720C720CA2013
:10019000CA200800FF30A20008298030082940301A
:1001A000A20008292030A20008291030A200082946
:1001B0000830A200082900000800DB200000080029
:1001C000DD20DD20000008001330A3000130A20074
:1001D0000A29000000002930A3000130A2000A29EA
:1001E0006330A3000130A2000A296330A30001306C
:1001F000A2000A29F5206230A30005210800FA2098
:10020000F5206130A300052108000130A2000A2971
:10021000FF30A300A30B0A29A20B082908006134B0
:100220006234633464346534663467346834693402
:100230006A346B346C346D346E3400347434653429
:0A0240007334743465343134003433
:04024A000034003448
:02024E00831219
:100250000317A1070318A00A20081F398A002108E4
:0202600082001A
:02400E00213F50
:00000001FF
