:020000040000FA
:040000000034003494
:0C000400831203170530A9004230AA0047
:10001000AA0B0828A90B0628080083120317AB00B7
:100020000220AB0B10280800831203170130AB002D
:10003000F330AC000220AC03FF302C06031D1A285D
:10004000AB03FF302B06031D1A2808008312031789
:10005000A1070318A00A20081F398A00210882007E
:1000600083120317A200633C031CFF34831203179F
:100070000A30A700831203172208CB20831203172C
:10008000A2000310A20D0310A20D0310A20D031075
:10009000A20D2208831203172704080083120317F6
:1000A000A200831203170A30A70083120317A20EBF
:1000B0000F302205A20EA32083120317A70083127C
:1000C00003170F3022058312031727070800831236
:1000D00003138B13831203170A30A500831203172F
:1000E000A301A4018316031381308100831203133B
:1000F00007308100831203130B138B168B178312A7
:100100000317A6010800831203130730810083122E
:10011000031783120317A40A0319A30AFA3024064B
:1001200003199328A1280030230603199828A12831
:10013000A301A40183120317A50A6430250603193D
:10014000A5010B11080083120317AA01AB0183124A
:100150000317A90183120317A800831203172908A4
:100160008312031727020319C128831203172808D3
:1001700083120317AB070318AA0A83120317A90AED
:10018000AD28831203172A0883120317A7008312CE
:1001900003172B08080083120317A9018312031702
:1001A000A8008312031727020319F8280318FD2853
:1001B00083120317280883120317270828028312C3
:1001C0000317A800831203172708280283120317B6
:1001D000A90A0319EE28031CEE28D8288312031756
:1001E000280883120317A7008312031729080800A1
:1001F00083120317A7010130080083120317280890
:0A02000083120317A7000301080092
:00000001FF
