:020000040000FA
:1000000001288B0107309F008316FF308500860191
:10001000831212206420B2208720B22001304220B7
:10002000B2200A28B8200330860006160612B8202F
:100030000330860006160612BA2003308600061624
:100040000612BA200230860006160612BD2028309D
:1000500042200830422001304220063042200C303D
:10006000422008008601831608308600831206129B
:100070000613861606160608A1000612C320A1194B
:100080003A280800A000A40106134928A00024145F
:1000900006173220860183160030860083128612EE
:1000A000061324180617F0308605200E0F39860433
:1000B000061600000612F030860520080F39860467
:1000C0000616000006120800803042202A30462022
:1000D00053304620453046204E30462041304620A1
:1000E0004930462020304620413046204E304620C0
:1000F000433046204830462049304620453046208F
:1001000054304620413046202A3046200800C33073
:1001100042202A304620B52050304620B5204930B4
:100120004620B52043304620B52031304620B5204A
:1001300036304620B52046304620B52036304620A1
:10014000B52032304620B52038304620B5202A3040
:100150004620B5200800B220B220B220B22008000C
:10016000B220B220B520B5200800FF30A200F3284D
:100170008030F3284030A200F3282030A200F3287A
:100180001030A200F3280830A200F3280000080075
:10019000C62000000800C820C82000000800133056
:1001A000A3000130A200F528000000002930A300C0
:1001B0000130A200F5286330A3000130A200F52829
:1001C0006330A3000130A200F528E0206230A300D4
:1001D000F0200800E520E0206130A300F0200800B6
:1001E0000130A200F528FF30A300A30BF528A20BD5
:0401F000F3280800E8
:0401F400003400349F
:02400E00213F50
:00000001FF
