:020000040000FA
:020000001628C0
:040002000034003492
:0800080083120317A500030E8B
:1000100083120317A6000B19DE2083120317260E86
:10002000830083120317A50E250E0900B6210E21A9
:100030000130722183120317290880307221413068
:04004000FD2117285F
:0C00440083120317A1070318A00A20086C
:100050001F398A002108820083120317A200633C23
:10006000031CFF34831203170A30A3008312031703
:1000700022088B2083120317A2000310A20D031085
:10008000A20D0310A20D0310A20D22088312031764
:100090002304080083120317A200831203170A30F7
:1000A000A30083120317A20E0F302205A20E6320B5
:1000B00083120317A300831203170F302205831244
:1000C00003172307080083120317AC01AD01831245
:1000D0000317AB0183120317A400831203172B0825
:1000E000831203172302031981288312031724089C
:1000F00083120317AD070318AC0A83120317AB0A68
:100100006D28831203172C0883120317A300831290
:1001100003172D08080083120317AB01831203177E
:10012000A4008312031723020319B8280318BD285B
:10013000831203172408831203172308240283124F
:100140000317A40083120317230824028312031742
:10015000AB0A0319AE28031CAE2898288312031794
:10016000240883120317A300831203172B08080027
:1001700083120317A3010130080083120317240818
:1001800083120317A30003010800831203138B13C8
:10019000831203170A30A90083120317A701A801CD
:1001A000831603138130810083120313073081000B
:1001B000831203130B138B168B1708008312031380
:1001C0000730810083120317A80A0319A70AFA301F
:1001D00028060319EC28FA28003027060319F1280D
:1001E000FA28A701A80183120317A90A6430290677
:1001F0000319A9010B110800831203170530AB0086
:100200004230AC00AC0B0229AB0B00290800831272
:100210000317AD00FC20AD0B0A2908008312031759
:100220000130AD00F330AE00FC20AE03FF302E06EF
:10023000031D1429AD03FF302D06031D14290800EA
:1002400083160313063086008312031309308600D9
:1002500008002C2083120317AB0083120317AC0095
:10026000AC0EF030AC052C1AAC15AC1A2C152C1BAE
:10027000AC14AC1B2C14AC0EF030AC050930AC0443
:100280002C08831203138600000000000000000009
:10029000861100000000000000008615831203177D
:1002A0002B0883120317AC00F030AC052C1AAC15E8
:1002B000AC1A2C152C1BAC14AC1B2C14AC0EF0304F
:1002C000AC050930AC042C0883120313860000002F
:1002D0000000000000000610000000000000000008
:1002E0000614080083120317AA00053007212A0EFE
:1002F0000F39831203138600000006160000000069
:1003000006120000831203172A080F398312031301
:10031000860000000616000000000612000008001B
:1003200083120317AA00053007212A0E0F39831202
:1003300003138600061700000000000006160000E8
:100340000000061200000000831203172A080F396C
:100350008312031386000617000000000000061633
:1003600000000000061200000613080083160313A5
:1003700000308600831203138612C92128307221AF
:100380000830722101307221063072210C30722146
:100390000800643007210330831203138600000035
:1003A000061600000000061200004030072103304E
:1003B00083120313860000000616000000000612D8
:1003C0000000203007210330831203138600000051
:1003D000061600000000061200002030072102303F
:1003E00083120313860000000616000000000612A8
:1003F0000000103007210800080083120317AA002C
:100400000D302A060319052A0B2A8312031701301F
:10041000A30000301022831203172A08902108003D
:1004200083120317AA008312031723080319192A3A
:100430001E2A831203172A08003E232A8312031759
:0C0440002A08403E232A80387221080060
:02400E00E93F88
:00000001FF
