:020000040000FA
:020000000528D1
:040002000034003492
:04000800090080006B
:04000C008312031741
:10001000A601A70183120317A50183120317A100EC
:1000200083120317250883120317200203192428BB
:1000300083120317210883120317A7070318A60AC0
:1000400083120317A50A10288312031726088312A8
:100050000317A00083120317270808008312031751
:10006000A50183120317A1008312031720020319AD
:100070005B280318602883120317210883120317D3
:100080002008210283120317A100831203172008FE
:10009000210283120317A50A03195128031C5128B2
:1000A0003B2883120317210883120317A000831231
:1000B00003172508080083120317A0010130080068
:1000C00083120317210883120317A00003010800FD
:1000D000831203170530A5004230A600A60B6E2838
:1000E000A50B6C28080083120317A7006820A70B34
:1000F00076280800831203170130A700F330A80008
:100100006820A803FF302806031D8028A703FF30BE
:100110002706031D8028080083120317A30703186E
:10012000A20A22081F398A002308820083120317BB
:10013000A400633C031CFF34831203170A30A000A1
:100140008312031724082E2083120317A400031020
:10015000A40D0310A40D0310A40D0310A40D240876
:10016000831203172004080083120317A4008312CC
:1001700003170A30A00083120317A40E0F302405C2
:10018000A40E062083120317A000831203170F305A
:0A019000240583120317200708005E
:02400E00E53F8C
:00000001FF
