:020000040000FA
:020000000C28CA
:040002000034003492
:08000800A100030EA000200E70
:0C0010008300A10E210E09000E200D2817
:04001C008316031331
:10002000043098001930990083120313903098001F
:1000300083120317A20183120317AB018312031764
:10004000AD010800831203131A08AE0083120317D0
:100050002C0803193F28013A031950282C08023AAA
:10006000031950282C08033A031950282C08043A85
:1000700003196A282C08053A0319762876280230D5
:10008000831203172E060319762883120317A20181
:10009000831203170130AC0083120317AB017C28D5
:1000A00083172330831203172B078400831203174F
:1000B0002E088000831203172B0A831203172208CD
:1000C000831203172E0683120317A200831203174D
:1000D0002C0A7C28831203172E088312031722068A
:1000E0000319762883120317AC0A7C28831203179E
:0A00F000AC0183120317AB010800F6
:00000001FF
