:1000000000308A0018280000223084008313000882
:10001000031917280230F800F701F70B0D28F80B29
:100020000C289730F700F70B1328800B0A280034B0
:10003000840183131F30830583161F149F141F151B
:100040009F1107309C00003085008801FF3083122B
:100050008800831685128312851283160511831278
:1000600005150230A100FA30A2000420A10B3328AC
:1000700083168801FF3083128800831605118312CE
:10008000051183168511831285150230A100FA30FF
:10009000A2000420A10B472883168801FF30831299
:1000A0008800831685118312851183160512831229
:1000B00005160230A100FA30A2000420A10B5B2833
:1000C00083168801FF30831288008316051283127D
:1000D000051283168512831285160230A100FA30AC
:1000E000A2000420A10B6F2883168801FF30831221
:1000F00088008316851283128512831605118312D8
:1001000005150530A200042083168801FF308312F4
:100110008800831605118312051183168511831239
:1001200085150530A200042083168801FF30831254
:100130008800831685118312851183160512831298
:1001400005160530A200042083168801FF308312B3
:1001500088008316051283120512831685128312F6
:0C01600085160530A200042074286300FE
:02400E00323F3F
:00000001FF
;PIC16F877A
