:10000000830101308A002829D700D81B0E28580800
:100010008A005708D70A0319D80A82005708D70A56
:100020008400000808005434683469347334203480
:100030006934733420346F346E34203452346F3466
:1000400077342034323420343F340034543465342F
:100050007334743469346E346734203474346834DF
:10006000653420344C342E3443342E3444342E340E
:10007000003450346C346534613473346534203466
:100080007034723465347334733420344B346534D3
:10009000793473342E342E3400345434653473344C
:1000A000743469346E3467342034533463347234B6
:1000B0006F346C346C3469346E3467342E342E34BF
:1000C00000344B3465347934203450347234653420
:1000D000733473346534643420343D342034003454
:1000E000203420342034203453346F346634743454
:1000F000773461347234653420345734723469345F
:100100007434743465346E34203442347934203499
:100110004D34693463346834613465346C3420346C
:100120005034653461347234633465342C34203493
:100130004334683465346D346934733474347234E0
:100140007934203444346534703461347234743416
:100150006D3465346E3474342C34203455346E343C
:100160006934763465347234733469347434793470
:1001700020346F3466342034433461346E34743444
:1001800065347234623475347234793420342034F6
:100190002034203420344634693472346D3477345A
:1001A000613472346534203456346534723420340A
:1001B00031342E3430343034203420342034003480
:1001C00020342034203420342034203459346F3407
:1001D00075342034573461346C346C3479342134C0
:1001E000203459346F3475342034613472346534BA
:1001F00020346F346E346C34793420346D3465348B
:100200006E347434203474346F3420347034723467
:1002100065347334733420346F346E346534203471
:100220006B3465347934203461347434203461346F
:100230002034743469346D346534213421342134EC
:10024000213420342034203420342034203400342D
:040250008301922F65
:100C6E008312CF000512803E662E080083120512F5
:100C7E000130662602304E2E08008312A000A1001D
:100C8E00A2012130CF00D001D017872E0800831289
:100C9E00CF006430D0000A307426D00B522ECF0B0A
:100CAE00502E08008301D50000305618550703104A
:100CBE00D50D0310D60CD608031D5C2E080083122A
:100CCE00D100510E0F398600851685125108860007
:100CDE00851685122830742E08008312D200D40196
:100CEE00D50155020318852E02308312D300D30B83
:100CFE007E2ED40A52085402031C7B2E8312080047
:100D0E0083120516932E83125008D8004F08CF0A6F
:100D1E000319D00A042066265008D8004F08042074
:100D2E000038031D8A2E83120800831205120F301D
:100D3E004E26033086008516851205304E26851602
:100D4E008512643074268516851205304E260230C3
:100D5E0086008516851228307426283066260830BF
:100D6E0066260F3066260630662E08008312A8010E
:100D7E00A90183122908870001304E260608AA0011
:100D8E00AA0E0F30AA05F030AA04FF30AA06AA0850
:100D9E000319D92E8312290EF039A8002A08A807A4
:100DAE000A30A9008312A90A08302902031CC02E9A
:100DBE008312280808008312A80083122808013A1B
:100DCE0003197634033A03194534063A03193034BD
:100DDE000C3A03194334193A03197E34033A0319B2
:100DEE003334063A031932340C3A03193134393A92
:100DFE0003197F34033A03193634063A031935348E
:100E0E000C3A03193434193A03195E34033A0319B0
:100E1E003934063A031938340C3A03193734693A1F
:100E2E0003194D34033A03196134063A0319623437
:100E3E000C3A03196334073A031D00345A34080080
:100E4E008312AA00AD01AE01AB01AC0102302A0241
:100E5E00031C342F8312AA01AA0A28308312D6004B
:100E6E002A0859268312AA002C082B04031D902F42
:100E7E008312AF01B00183122908D6002808D500CD
:100E8E002D08D5070318D60A2E08D60756083007A0
:100E9E00D80055082F070318D80A0420D500313082
:100EAE002F078400550880002908D6002808D50091
:100EBE002F08D5070318D60A3008D6072D08D507F0
:100ECE000318D60A2E08D6075608D8005508013E34
:100EDE000318D80A04200038031D782FAB01AB0A83
:100EEE00AC01AF0A0319B00A0030300214300319F6
:100EFE002F02031C422F8312AD0A0319AE0A2A08D1
:100F0E0037263130CF00D001D0178726C8304E2675
:100F1E003B2F8312080030308312A3008316810109
:100F2E008B13CF308500F0308600F83087006430A8
:100F3E0083124E269C263D262630CF000030D00050
:100F4E008726283037261330CF000030D000872672
:100F5E00A101A201033083124E26A10A0319A20A8F
:100F6E0003302202E83003192102031CB12F831231
:100F7E003D264D30CF000030D00087267030A800BF
:100F8E000030A90001302727A101A20103308312EE
:100F9E004E26A10A0319A20A03302202E8300319D1
:100FAE002102031CCD2F83123D263930CF00003095
:100FBE00D0008726BD26A000E226A30028303726C3
:100FCE006130CF000030D00087262330CF00D00113
:100FDE00D017872623085A3A031DFC2FE0308312C0
:100FEE00A8000030A90001302727643083124E2656
:020FFE00E12FE1
:00000001FF
