:10000000830101308A000E29A00003088301DA0071
:100010000408DB005708DE0083128C1FBD288316FE
:10002000891FB62883120808AE00103A03198A28DF
:10003000013A03197D28033A03195A28013A031992
:100040005028073A03198828013A03199528033ADA
:100050000319A3280B3A0319B528033A0319B32847
:10006000013A0319B128D91C3B2883122E08A1009C
:10007000D9105915B6288312591E442883122E0808
:10008000A500D9165912B6288312303022078400F1
:100090002E088000A20A28302202031CB6288428D9
:1000A00014302202031857288312A2015A28143050
:1000B0008312A20014302202031C79288312AF019C
:1000C00083122F08143ED700303E84000008D7006A
:1000D00030302F078400570880002F08143ED700C7
:1000E000303E84008001AF0A14302F020318B62876
:1000F000602814308312A207B62814302202031895
:1001000084288312A201B62814308312A200B628D4
:100110005914B628AF01831230302F0784008001B4
:10012000AF0A28302F02031C8B288312A201AF01D3
:10013000831230302F0784008001AF0A14302F0261
:100140000318B62898281430A200AF00831230306C
:100150002F0784008001AF0A28302F020318B62829
:10016000A628D915B628D914B62859168316091BFE
:10017000BB288312880183128C1383125E08D70078
:100180005B0884005A088300A00E200E0900DC00E2
:10019000DD1BD1285D088A005C08DC0A0319DD0A32
:1001A00082005C08DC0A8400000808004C344334F8
:1001B00044342034263420344B346534793470345C
:1001C00061346434203444347234693476346534B0
:1001D00072340034563465347234733469346F3495
:1001E0006E34203432342E34303431342E343134C1
:1001F0000034203420342034203453346F347234AB
:100200007234793420344E346F34203447346134BE
:100210006D3465342134213420340034213084009D
:1002200030301F210730DD00D730DC003030840053
:10023000573023218301572F04068001840A0406C6
:10024000031D1C290034D700C8208000840A04083C
:080250005706031D24290034A8
:100B52008312A7000512803EE32D080083120512BE
:100B62000130E3250230D62D0800F9308312A700A8
:100B72000030A8000030F326702E08008312A70070
:100B8200A800A9012830AA00AB01AB17F32D080079
:100B92008301D7000030581857070310D70D0310F0
:100BA200D80CD808031DCC2D08008312A8000430ED
:100BB200A900FB30AA00AA0BDC2DA90BDA2DA80B89
:100BC200D82D08008312AC002C0E0F398600851632
:100BD20085122C088600851685122930AD00AD0BD2
:100BE200F02D080083120516FF2D83122B08DD005D
:0E0BF2002A08AA0A0319AB0AC720E3252B081C
:100C0000DD002A08C7200038031DF62D83120800D6
:100C10008312A700A601260A03191F2E8312871527
:100C200027080138A800A80B132E871127080138C0
:100C3000A800A80B192EA60A260A031D0E2E831241
:100C40000800831205120F30D62503308600851662
:100C500085120530D625851685126530A700A70BAD
:100C60002F2E851685120530D62502308600851672
:100C700085122930A700A70B3B2E2830E32508302A
:100C8000E3250F30E3250630E32D8312A701A801E9
:100C90008312280887006530AA00AA0B4D2E06088B
:100CA000A900A90E0F30A905F030A904FF30A9064C
:100CB000A9080319632E8312280EF039A70029080A
:100CC000A7070A30A8008312A80A08302802031CCC
:100CD000482E65308312AA00AA0B6C2E2708080044
:100CE0008312AF250030A925A6011430260203186F
:100CF0008F2E83123030260784008008031D842E37
:100D000013308312A6008A2E831230302607840007
:100D10000008BF25A60A14302602031C792E2830AD
:100D20008312A925283026020318AC2E83123030F6
:100D3000260784008008031DA12E28308312A600F8
:100D4000A72E83123030260784000008BF25A60A8C
:100D500028302602031C962E831208008312A70057
:100D600083122708013A03194434033A031945341E
:100D7000063A031930340C3A03194334193A03196B
:100D80005234033A03193334063A031932340C3A15
:100D900003193134393A03194C34033A0319363400
:100DA000063A031935340C3A03193434193A031945
:100DB0005534033A03193934063A031938340C3AD6
:100DC00003193734693A03194D34033A031961346E
:100DD000063A031962340C3A03196334073A031DC7
:100DE0000034FF3408008312A700AA01AB01A80158
:100DF000A90102302702031C002F8312A701A70AB2
:100E000028308312D8002708C9258312A700290893
:100E10002804031D552F8312A6011430260203183F
:100E2000472F83122608D700D8012A08D7070318AE
:100E3000D80A2B08D80758082807DD0057082707C5
:100E40000318DD0AC720D7002C3026078400570876
:100E500080002608D700D8012A08D7070318D80A27
:100E60002B08D8072708D7070318D80A2808D80757
:100E70005808DD005708013E0318DD0AC720003876
:100E8000031D452FA801A80AA901A60A0D2F831248
:100E9000AA0A0319AB0A2708A9252C30AA00AB011E
:100EA000AB17F3256430D625072F83120800831271
:100EB0008711D911A2015910D91059111530A1006B
:100EC000CF3083168500F03086008700FF30880021
:100ED0000730890083128801091583160911091248
:100EE0008C1383128C130B178B172126AF25D6304A
:100EF000AA000030AB00F3252830A925EA30AA006B
:100F00000030AB00F325C830D625643008266430A5
:100F100008263C3008263C3008263C300826C830DD
:100F20000826702609111430D62583168C1709154A
:100F300009168312D91D9F2F8312D911702683128F
:100F4000591DA62F831259112108A9258312D91ED4
:100F5000AD2F8312D9122508BF258312591CB42F37
:100F6000503083120826591083124526A300A30887
:100F70000319D42F83122308AE26A30024060319D5
:100F8000C82F3230831208262308A40023088800C3
:100F90008312230A031D992F6430831208263230EE
:100FA0000826C8300826992F8312A401992F573498
:100FB00061346934743469346E346734203466348F
:100FC0006F347234203464346134743461342E34B8
:100FD0000034203420342034203420342034203491
:100FE0002034203420342034203420342034203461
:100FF00020342034203420342034003400340034B1
:00000001FF
