:020000040000FA
:040000000034003494
:0C000400831203170530A8004230A90049
:10001000A90B0828A80B0628080083120317AA00BA
:100020000220AA0B10280800831203170130AA002F
:10003000F330AB000220AB03FF302B06031D1A2860
:10004000AA03FF302A06031D1A280800831203178B
:10005000A1070318A00A20081F398A00210882007E
:1000600083120317A200633C031CFF34831203179F
:100070000A30A600831203172208C6208312031732
:10008000A2000310A20D0310A20D0310A20D031075
:10009000A20D2208831203172604080083120317F7
:1000A000A200831203170A30A60083120317A20EC0
:1000B0000F302205A20E9E2083120317A600831282
:1000C00003170F3022058312031726070800831237
:1000D00003138B13831203170A30A500831203172F
:1000E000A301A4018316031381308100831203133B
:1000F00007308100831203130B138B168B17080034
:10010000831203130730810083120317A40A031913
:10011000A30AFA30240603198E289C2800302306EF
:10012000031993289C28A301A40183120317A50A8D
:10013000643025060319A5010B110800831203176B
:10014000A901AA0183120317A80183120317A700AC
:100150008312031728088312031726020319BC28E9
:1001600083120317270883120317AA070318A90A83
:1001700083120317A80AA8288312031729088312D9
:100180000317A600831203172A0808008312031717
:10019000A80183120317A70083120317260203196D
:1001A000F3280318F828831203172708831203176C
:1001B0002608270283120317A700831203172608B5
:1001C000270283120317A80A0319E928031CE92848
:1001D000D32883120317270883120317A60083125C
:1001E00003172808080083120317A601013008002E
:1001F00083120317270883120317A60003010800C0
:00000001FF
