:020000040000FA
:0600000049EF13F01200AD
:020006001200E6
:060008005BEF10F0120096
:02000E00FEFFF3
:0400100028080101BA
:06001800CDEF10F0120014
:02001E000500DB
:1000200010000000F401000004000000362700006A
:10003000000400008500000006270000B401000055
:10004000300000000E000000FA0100000200000075
:0C005000F7260000FC0100000100000089
:04005C006AEC05F055
:10006000FB0EDBCFF3FFDB06F35000090AE0B8EC30
:1000700005F0FA0E23EC06F0F3E1151CF1E1010E98
:1000800001D0000E99EF05F06AEC05F03B0EE1247B
:1000900002E3E168E652E16E010EDB6A020EDB6A02
:1000A000F90EDBCFF6FFFA0EDBCFF7FFFB0EDBCF4F
:1000B000F8FF0800F550DF6EDF5002E1BDEF04F0FD
:1000C000250EDF5C02E0B0EF04F0030EDB6A040EE5
:1000D000DB6A050EDB6A060EDB6A070EDB6AD2EC12
:1000E00004F02D0EDF5C0CE02B0EDF5C09E0200E2F
:1000F000DF5C06E0230EDF5C03E0300EDF5C1AE11C
:10010000DF50300A14E0130A0FE0030A0AE00B0A7A
:1001100005E0060AE4E1030EDB80E1D7030EDB8293
:10012000DED7030EDB84DBD7030EDB86D8D7030EC6
:10013000DB88D5D72A0EDF5C1BE1CEEC04F01CEC8B
:1001400005F010E0030EDB8006680768130EDBCFB6
:100150000DF0140EDBCF0EF0A8EC12F0040E04C06C
:10016000DBFF03D0130E05EC05F0D2EC04F00BD04E
:10017000090EDB6A73EC05F003E0E7EC05F0FAD753
:10018000090E05EC05F0030EDBB0DB982E0EDF5CEC
:100190001BE1D2EC04F02A0EDF5C0BE1CEEC04F0A4
:1001A0001CEC05F003E1130E57EC05F0D2EC04F063
:1001B0000BD0090EDB6A73EC05F003E0E7EC05F009
:1001C000FAD7090E57EC05F0680EDF5C07E1D2ECB8
:1001D00004F0680EDF5C1DE1030E18D0740EDF5CC6
:1001E00017E07A0EDF5C14E0480EDF5C06E0540E88
:1001F000DF5C03E05A0EDF5C02E1020E07D06C0EFA
:10020000DF5C03E06A0EDF5C04E1010EAAEC05F09E
:10021000C9DBDF506E0A01E17FD31E0A01E192D1F2
:10022000200A01E18FD13F0A01E149D11A0A01E117
:1002300046D10D0A01E143D1200A01E140D13A0A39
:1002400001E13DD1200A01E13AD1260A01E135D18F
:100250000D0A01E132D11A0A01E1D9D0200A4AE09F
:10026000300A1FE0460A0EE0250A01E083D3D95088
:10027000F90FE96EFF0EDA20EA6E010EEE5E000E57
:10028000EE5AEE5AB8EC05F0250EE66E95DB03E16A
:10029000151C01E169D3B4EC05F001E26BD3DB2A54
:1002A00069D3080EDB6A040EDB50010806E2040E77
:1002B000DB047CEC05F0DB508BDB080EDB5009E047
:1002C000030EDB50010B05E172DB01E04DD3080E9C
:1002D000DB6A64DBEFCFDFFF2CEC06F003E1151CDB
:1002E00001E142D3B4EC05F001E3DB2A60DB01E17C
:1002F00041D33AD3070EDB5002080FE1F8EC05F0CA
:10030000030EBFEC05F00E0EEECFDBFF0F0EEECFAF
:10031000DBFF100EEECFDBFF20D0F70EDBCF17F0A8
:10032000F80EDBCF18F0020E175E000E185AF70E0B
:1003300017C0DBFFF80E18C0DBFF17C0E9FF18C0BD
:10034000EAFFAFEC05F0166A0E0E14C0DBFF0F0ECD
:1003500015C0DBFF100E16C0DBFF0E0EDBCFE6FF75
:100360000F0EDBCFE6FF100EDBCFE6FF36EC10F012
:10037000E552E552E552130E05C0DBFF140E06C030
:10038000DBFF060EDB5005E0130EF3EC05F001E297
:100390006ADB17EC06F002E2130E37DBDAEC05F04D
:1003A00006E0040EF3EC05F002E2050E2EDB030E70
:1003B000DBB005D0FCDA01E0D7D2080EDB6A090E0B
:1003C000DB6A0E0EDBCFF6FF0F0EDBCFF7FF100E52
:1003D000DBCFF8FF0800F550DF6EDF5014E01DECB6
:1003E00006F011E22CEC06F003E1151C01E1BCD291
:1003F000BBDB01E3DB2A090EDB2AD9500E0FE96EC5
:10040000000ECBDBE7D7D3DA01E1B4D2ADD2C6DA46
:10041000110EEECFDBFF120EEDCFDBFF110EDBCFA7
:10042000E6FF120EDBCFE6FF28EC10F0E552E552B6
:10043000130EF3CFDBFF140EF4CFDBFF060EDB5001
:1004400004E0130ED0DB01E20EDB17EC06F002E253
:10045000130EDBDAAFDB05E0040EC5DB02E2050EAE
:10046000D4DA030EDBB005D0A2DA01E07DD2080EAB
:10047000DB6A090EDB6A110EDBCFE9FF120EDBCF60
:10048000EAFFEFCFDFFFDF5014E0D7DB12E2E4DB5F
:1004900003E1151C01E168D267DB01E3DB2A090EE9
:1004A000DB2A110EDB2ADBCFE9FF120EE8E3DB2AA1
:1004B000E6D77DDA01E15ED257D2030EDB8E070E5E
:1004C000DB0410E195DB040E5ADB0A0EEECFDBFFF6
:1004D0000B0EEECFDBFF0C0EEECFDBFF0D0EEECFE3
:1004E000DBFF6CD0070EDB5003082CE1030EDBAE04
:1004F0000DD0B2DA020E76DAEFCF14F0156A166A72
:10050000176A14AE39D01568166835D0F70EDBCFF0
:1005100015F0F80EDBCF16F0020E155E000E165A1F
:10052000F70E15C0DBFFF80E16C0DBFF15C0E9FFA4
:1005300016C0EAFFEFCF14F00A0E14C0DBFF0B0E5B
:10054000DB6A38D0070EDB50020809E1030EDBAE90
:1005500004D059DB16AE10D00ED055DB0DD0030EF3
:10056000DBAE12D079DA020E3DDAF9DA166A176AD2
:1005700015AE02D016681768E2DA0C0E16C0DBFF63
:100580000D0E17C0DBFF1AD0F70EDBCF16F0F80EFA
:10059000DBCF17F0020E165E000E175AF70E16C0CC
:1005A000DBFFF80E17C0DBFF16C0E9FF17C0EAFF3C
:1005B000D6DAC5DA0C0EDB6A0D0EDB6A060EDB50EE
:1005C00005E1010EF36E050EF3CFDBFF150EDB6ABE
:1005D000160EDB6AD950370F146E000EDA20156E36
:1005E000390E14C0DBFF3A0E15C0DBFF380EDB6A94
:1005F000080EDB6A0A0EAEDADF50780A12E0200A33
:1006000010E0280A0CE0200A0AE03F0A06E00D0A82
:1006100002E0200A08E1020E05D0080E03D0080E01
:10062000DF26100E97DA030EDBBE02D0DB92DB94DE
:10063000DB50800B24E08ADAD890030EEB50000ADE
:1006400008E6000EEE5C000EEE58000EEE58000EAE
:10065000EE5815E213DA0B680C680D680E680AECA8
:1006600012F00A0E00C0DBFF0B0E01C0DBFF0C0E08
:1006700002C0DBFF0D0E03C0DBFF2D0E08D0030E02
:10068000DBA202D02B0E03D0DBA408D0200EF36E29
:10069000170EF3CFDBFF150EDB2A02D0170EDB6A35
:1006A000050EDB5003E1B7D901E189D0E60E146EE7
:1006B000260E156E000E166E070EDBCF17F0186AA9
:1006C000196A1A6A17C00BF018C00CF019C00DF0A7
:1006D0001AC00EF0D3D925EC13F014500024F36E99
:1006E00015500120F46E16500220F86EF4CFF7FF7B
:1006F000F3CFF6FF0800090EF5CFDBFF580EDF5CE5
:100700000FE1610EF36E090E7BD90AE3200E146E21
:10071000090EDBCFE7FF1450E75E090EE7CFDBFFE2
:10072000070EDBCF14F0156A166A176A0FDA14C0C9
:100730000BF015C00CF016C00DF017C00EF0EECF88
:1007400004F0EECF05F0EECF06F0EFCF07F025EC8A
:1007500013F007C0EDFF06C0EDFF05C0EDFF04C0BC
:10076000EFFF390EDBCFE9FFDB063A0EDBCFEAFF06
:1007700001E2DB06090EDBCFEFFF150EDB2A4BD9BA
:1007800095E1030EDBA61DD06F0EDF5C06E1C1D93B
:1007900018E3150EDB285BDA14D0780EDF5C09E075
:1007A000580EDF5C06E0620EDF5C03E0420EDF5CA9
:1007B00008E1020EF36E160EF3CFDBFF02D0150E2A
:1007C000DB6A030EDB50100B0EE0040EDBCF14F0DF
:1007D000050EDB50D880145406E2060EDB5003E110
:1007E000040EDB5034DA95D90AE2050EDBCFE7FFC1
:1007F000150EDB50E75E050EE7CFDBFF02D0050EDE
:10080000DB6A040EDBCF14F0160E45D9D8801454E1
:1008100014E2160EDBCFE6FF150EDBCFE6FF040E6B
:10082000DBCFE6FF050EDB50E552E75CE552D880F2
:10083000E754E552D880E7545FD9030EDB50010B33
:100840000BE1080EDB5008E0B2D801E08DD0080EB5
:10085000DB50BED8080EDB6A170EDB5007E088D9E4
:10086000170EF1D903E1151C01E17ED0160EDB5005
:1008700016E07ED9300EE66E9FD802E1151C74E0BA
:1008800077D9DFCFE6FFC8EC11F0E552E552E5522B
:10089000F4CF15F00001F31C02E1151C65E0050E14
:1008A000DBCF14F0160EDB50D880145409E2050E8D
:1008B000DBCFE7FF160EDB50E75E050EE7CFDBFF71
:1008C000300EE66E050ECBD94FE1390EDB2ADBCFB9
:1008D000E9FF3A0E01E3DB2ADBCFEAFF090EEFCF97
:1008E000DBFFDB500EE044D9090EADD902E1151C47
:1008F0003BE0390EDB2ADBCFE9FF3A0EEDE3DB2AE2
:10090000EBD755D831E1160EDBCFE6FF080EC3D882
:10091000E552E7245DD82ED0070EDB50030A1CE019
:10092000010A14E0030A07E07BD9DBCFEEFF020ED9
:10093000DBCFEDFF1FD0F5D8196A17AE02D01868CB
:1009400019682CD8BCD819C0EEFF14D0EAD817BE4D
:10095000186824D8B4D80ED063D9DBCFEFFF0AD003
:100960007BD905E1151C03E1F368F46810D0FCD8CD
:1009700001E3DB2A79D959EF00F0010EDBCF14F047
:10098000020EDBCF15F014C0F3FF15C0F4FF3B0ED1
:10099000E15C02E2E16AE552E16ECBD029D9020EB8
:1009A000BFEF05F061D90800F550DF6E1200200E90
:1009B000E66E080E2FEF06F0C8EC11F0E552E55296
:1009C000E552F3CF14F0F4CF15F00001F31C120040
:1009D000146E156AD950010F4DD91450EE261550DA
:1009E000ED221200185E000E195AF70E18C0DBFF38
:1009F000F80E19C0DBFF18C0E9FF19C0EAFF1200AA
:100A0000DBCFF4FFF350F45C1200DB50E76E040E12
:100A1000E7CFDBFF12000A0EDBCF14F00B0EDBCFAB
:100A200015F00C0EDBCF16F00D0EDBCF17F01450C7
:100A30001510161017101200130EEECFDBFF140E58
:100A4000EDCFDBFF130EDBCF14F0140EDBCF15F070
:100A50000001800E15141200F70EDBCF18F0F80E0F
:100A6000DBCF19F01200050EDB50E66ED950130FE4
:100A700001D9E552E750EE6EED6A12000A0EDBCFA7
:100A800004F00B0EDBCF05F00C0EDBCF06F00D0EE5
:100A9000DBCF07F01200DBCFE6FF150EDBCFE6FF62
:100AA000050EDB50E552E724E552E7241200DB5047
:100AB000CED8010EF36E060EF3CFDBFF1200EE5020
:100AC000EFCFEAFFE96E16C0EEFF17C0EEFF18C0C9
:100AD000EEFF1200D9CFE6FFDACFE6FFE1CFD9FF74
:100AE000E2CFDAFF1200DFCFE6FFE66A13EC13F085
:100AF000E552E552F3501200E76E080EE7CFDBFF38
:100B00001200EECF14F0EECF15F0EFCF16F0176A0B
:100B10001200050EDBCF14F0150EDB50D8801454F4
:100B20001200010EDBCF16F0020EDBCF17F0186AB1
:100B30001200E552E5CFDAFFE7CFD9FF12000A0E27
:100B400014C0DBFF0B0E15C0DBFF1200D9500A0FDB
:100B50003AEF06F0F36E070EF3CFDBFF1200EECF95
:100B600014F0EFCF15F01200010EDB2A020E120076
:100B7000FC0EDBCFE6FFFD0EDBCFE6FF1200145EBE
:100B8000000E155AF70E14C0DBFFF80E15C0DBFF80
:100B900014C0E9FF15C0EAFF1200DA20EA6EEF2A5E
:100BA000EECFF6FF000EEF22EECFF7FFEF22EECFF3
:100BB000F8FF1200040EDBCFE6FF130EDB50E55208
:100BC000E75C9ADFDB5004DF060EDB501200090EF3
:100BD000DB500A0DF350DF24D00FE76E090EE7CF8C
:100BE000DBFFD2EF04F0DB50F36E050E00EF05F0F3
:100BF000F70EDBCF14F0F80EDBCF15F01200DFCFCD
:100C0000E6FFDCEF04F028DF030EECDE81EF05F0F9
:100C10002EEC00F0E552E552E552E55200091200D3
:100C2000BDDEEE50EFCFEAFFE96E010E1200130EAB
:100C3000DB50F36E040E00EF05F0040EDB50F36E94
:100C4000090E00EF05F0DBCFE6FFDCEF04F0E76E06
:100C5000050EE7CFDBFF12008BDFFFEF05F0DBCFE8
:100C6000E6FF86DF08EF06F0D950F90FE96EFF0EB8
:0E0C7000CDEF05F0E96E000EDA20EA6E1200FC
:020C7E00030170
:100C80000E0E796F040E7A6F3C0E7B6F040E7C6F34
:100C90007D6B7E6B590E7F6F040E806F6D0E816FC2
:100CA000040E826F230E836F040E846F000E856F17
:100CB000040E866F2A0E876F040E886F896B8A6B0D
:100CC0004E0E8B6F040E8C6F640E8D6F040E8E6F44
:100CD0001C0E8F6F040E906F006B010E186F020ECA
:100CE0002B6F030E406F040E5C6F050E686F0401DE
:100CF0007C6B836B5A0EE66EE66AE66A000EE66E61
:100D0000010EE66ED9EC0FF0146E050EE15E145084
:100D100094948B840401820511E16E0EE66E0D0E33
:100D2000E66E000EE66EE66AE66A040EE66EE66AB7
:100D3000FAEC0EF0146E070EE15E145000D01200B3
:100D40009EDF00D012000401010E826F00D012005D
:100D50008B740A0EE66EE66AE66AE66A78EC12F0D2
:100D6000E552E552E552E5528B7400D01200D9CF1E
:100D7000E6FFE1CFD9FF020EE126010EDB6A76EC39
:100D80000FF0E66EE66AFFEC12F0E552E552F35022
:100D9000DF6E04017D51090A01E195D0010A01E1EC
:100DA00087D0020A01E17AD00D0A6CE0010A60E006
:100DB000030A4BE0010A36E0070A25E0010A1AE0BF
:100DC000030A0DE0010A01E08AD0240EDF5C03E093
:100DD000DE52010EDD6E806B010E7D6F83D0470EFB
:100DE000DF5C03E0DE52010EDD6E010E806F020E4D
:100DF0007D6F78D0500EDF5C03E0DE52010EDD6EB9
:100E0000030E7D6F6FD0DF50470A05E0150A03E03F
:100E1000040A01E001D003D0DE52010EDD6E040EA3
:100E20007D6F60D0DF50470A09E0140A07E01E0A10
:100E300005E0190A03E0180A01E001D003D0DE52F0
:100E4000010EDD6E050E7D6F4DD0DF50410A09E0C9
:100E5000170A07E0150A05E0040A03E00B0A01E09F
:100E600001D003D0DE52010EDD6E060E7D6F3AD04A
:100E70002A0EDF5C04E1806B070E7D6F02D0060E48
:100E80007D6F30D0DFCFE6FFD5EC12F0E552100DCC
:100E9000F3CF81F404010A0E7D6F24D0DFCFE6FF8B
:100EA000D5EC12F0E55204018127080E7D6F1AD0AF
:100EB0000D0EDF5C04E0DE52010EDD6E03D0090E84
:100EC0007D6F35D00FD00A0EDF5C04E0DE52010EDC
:100ED000DD6E04D07D6B010E7E6F29D003D0DE5213
:100EE000010EDD6E800505E1010EDB5002E1DF50F1
:100EF0007F1B080E7D5D08E181517F5D03E0DE52BE
:100F0000010EDD6E816B7F6B010EDB0406E17D6BF4
:100F10007F6B816B7C6B7E6B09D07C51EA6A000F22
:100F2000E96E010EEA22DFCFEFFF7C2B00D0020E2C
:100F3000E15C02E2E16AE552E16EE552E7CFD9FFFA
:100F40001200D9CFE6FFE1CFD9FFE65204017E516E
:100F500002E1000ED2D0DF6A050EE66EE66AE90E07
:100F6000E66E240EE66E000EE66E010EE66E010ED3
:100F7000E66E07EC10F0146E070EE15E14500009E7
:100F800002E1DF6A7DD0050EE66EE66AE30EE66EEC
:100F9000240EE66E000EE66E010EE66E010EE66EA3
:100FA00007EC10F0146E070EE15E1450000903E127
:100FB000010EDF6E65D0050EE66EE66ADD0EE66EAA
:100FC000240EE66E000EE66E010EE66E010EE66E73
:100FD00007EC10F0146E070EE15E1450000903E1F7
:100FE000020EDF6E4DD0050EE66EE66AD70EE66E97
:100FF000240EE66E000EE66E010EE66E010EE66E43
:1010000007EC10F0146E070EE15E1450000903E1C6
:10101000030EDF6E35D0050EE66EE66AD10EE66E83
:10102000240EE66E000EE66E010EE66E010EE66E12
:1010300007EC10F0146E070EE15E1450000903E196
:10104000040EDF6E1DD0050EE66EE66ACB0EE66E70
:10105000240EE66E000EE66E010EE66E010EE66EE2
:1010600007EC10F0146E070EE15E1450000903E166
:10107000050EDF6E05D004017E6B7C6B000E3DD04B
:10108000FD0EDBCFE9FFFE0EDBCFEAFFDFCFEFFF88
:10109000050E04017C5DFB0FE66EE66A070EE66E48
:1010A000010EE66E5A0EE66E010EE66EAEEC0FF025
:1010B000146E060EE15E1450050E04017C5DFB0FFC
:1010C000EA6A5A0FE96E010EEA222C0EEF6E050E47
:1010D0007C5DFC0FEA6A5A0FE96E010EEA22EF6AA4
:1010E000FB0EDBCFE9FFFC0EDBCFEAFF5A0EEE6E04
:1010F000010EED6E7C6B010E00D0E552E552E7CF9C
:10110000D9FF1200D9CFE6FFE1CFD9FF060EE126C5
:10111000040EDB6A050EDB6AD950020FE66E000E84
:10112000DA20E66ED9CFE6FFDACFE6FF0ADFE55236
:10113000E552E552E552000902E1FF0E65D0DF50AD
:10114000020A3DE0070A31E0010A25E0070A19E03A
:10115000020A0DE0010A01E03CD0D950040FE96E0B
:10116000DACFEAFF000EEE6E030EED6E32D0D950EC
:10117000040FE96EDACFEAFF180EEE6E030EED6E85
:1011800028D0D950040FE96EDACFEAFF400EEE6E98
:10119000030EED6E1ED0D950040FE96EDACFEAFFD0
:1011A0005C0EEE6E030EED6E14D0D950040FE96E96
:1011B000DACFEAFF680EEE6E030EED6E0AD0D9505C
:1011C000040FE96EDACFEAFF2B0EEE6E030EED6E22
:1011D00000D0D950040FE96EDACFEAFFEE50ED10DF
:1011E00011E0040EDBCFE6FF050EDBCFE6FF020EBB
:1011F000DBCFE6FF030EDBCFE6FF12D8E552E55268
:10120000E552E552DF5000D0146E060EE15C02E2BA
:10121000E16AE552E16E1450E552E7CFD9FF1200C2
:10122000D9CFE6FFE1CFD9FF1A0EE126D950FB0F47
:10123000E96EFF0EDA20EA6EEE50ED1001E192D178
:10124000FB0EDBCFE9FFFC0EDBCFEAFFEFCFDFFFCA
:10125000FD0EDBCF06F0FE0EDBCF07F0130E06C04F
:10126000DBFF140E07C0DBFF130EDBCF06F0140EFE
:10127000DBCF07F0150E06C0DBFF160E07C0DBFF45
:10128000DF50020A01E16CD1020A09E0010A07E01D
:10129000020A05E0070A03E0010A01E062D1010E3B
:1012A000F36E180EF3CFDBFF170EDB6ADF50EA6A2E
:1012B000760FE96E040EEA22EF50F36E170EDBCFC5
:1012C000F4FFF350F45C01E34AD1D950150FE96EF5
:1012D000DACFEAFFEE50ED1001E141D1170EDB50FD
:1012E000146E156AEA6ADF34FE0BEA36E96E850E83
:1012F000E926030EEA221450EE24E76E1550EE2084
:10130000EA6EE7CFE9FF190EEFCFDBFF2C0EE66E9A
:10131000130EDBCFE6FF140EDBCFE6FFF3EC0FF08E
:10132000E552E552E552150EF3CFDBFF160EF4CF72
:10133000DBFFD950150FE96EDACFEAFFEE50ED1062
:1013400001E1EFD0170EDB50146E156AEA6ADF3444
:10135000FE0BEA36E96E790EE926030EEA221450F6
:10136000EE24E76E1550EE20EA6EE7CFE9FFEF506E
:1013700054082FE1150EDBCF16F0160EDBCF17F059
:10138000130EDB50165C146E140EDB501758156EDE
:101390001450E66EE66A130EDBCFE6FF140EDBCFC9
:1013A000E6FF180EDB50E76EFB0EDBCF18F0FC0EED
:1013B000DBCF19F0E7501826000E192218C0E6FFFF
:1013C00019C0E6FFAEEC0FF01A6E060EE15E1A5081
:1013D000A8D0130EDBCF14F0140EDBCF15F0150ED2
:1013E000DB50141803E1160EDB50151801E199D0FB
:1013F000100EE66EE66AE66AD950010FE66E000E40
:10140000DA20E66ED9EC0FF0146E050EE15E145092
:10141000150EDBCF16F0160EDBCF17F0130EDB50D8
:10142000165C146E140EDB501758156E1450E66ED1
:10143000E66A130EDBCFE6FF140EDBCFE6FFD950D2
:10144000010FE66E000EDA20E66EAEEC0FF0186EBD
:10145000060EE15E1850190EDB50010A45E0050A40
:1014600023E0060A01E040D0D950010FE66E000EDD
:10147000DA20E66E03EC0CF0E552E552F3CF14F0FF
:10148000F4CF15F0180EDB50E76EFB0EDBCFE9FF53
:10149000FC0EDBCFEAFFE750E926000EEA2214C07B
:1014A000EEFF15C0EDFF3DD0D950010FE66E000EE6
:1014B000DA20E66E78EC0CF0E552E55204C014F048
:1014C00005C015F0180EDB50E76EFB0EDBCFE9FF11
:1014D000FC0EDBCFEAFFE750E926000EEA2214C03B
:1014E000EEFF15C0EDFF1DD0D950010FE66E000EC6
:1014F000DA20E66E03EC0CF0E552E552F350E66EAE
:10150000180EDB50E76EFB0EDBCFE9FFFC0EDBCFE6
:10151000EAFFE750E926000EEA22E552E750EF6EB7
:1015200000D0010EE76E150EDBCF14F0160EDBCFE8
:1015300015F0E7501426000E1522130E14C0DBFF21
:10154000140E15C0DBFF180EDBCFE7FF190EDB50C2
:10155000E726180EE7CFDBFF170EDB2AA7D601D050
:1015600000D000D01A0EE15C02E2E16AE552E16EC1
:08157000E552E7CFD9FF12009C
:08157800D9CFE6FFE1CFD9FF56
:10158000FE0EDBCFE6FFEFD8E55200D0E552E7CF05
:10159000D9FF1200D9CFE6FFE1CFD9FF8D9000002F
:1015A000FE0EDB50E8B08D80E8A08D9000000000BA
:1015B00000000000000000008D92FD0EDB508C6EDC
:1015C00000008D8200000000000000008D92010EDE
:1015D000E66EE66AE66AE66A78EC12F0E552E552F3
:1015E000E552E552E552E7CFD9FF1200D9CFE6FF29
:1015F000E1CFD9FFE6520F0EC16E956A8C6A9690C4
:101600008D9096928D921E0EE66EE66AE66AE66A06
:1016100078EC12F0E552E552E552E552DF6A030E2E
:10162000DF5C13E2300EE66EE66AB4DFE552E552A7
:10163000050EE66EE66AE66AE66A78EC12F0E552B6
:10164000E552E552E552DF2AEAD7380EE66EE66A41
:10165000A1DFE552E552020EE66EE66AE66AE66A48
:1016600078EC12F0E552E552E552E552010EE66ED5
:10167000E66A90DFE552E552010EE66EE66AE66A3A
:10168000E66A78EC12F0E552E552E552E5520C0EAE
:10169000E66EE66A7FDFE552E552020EE66EE66A26
:1016A000E66AE66A78EC12F0E552E552E552E55258
:1016B000060EE66EE66A6EDFE552E552020EE66E53
:1016C000E66AE66AE66A78EC12F0E552E552E5521F
:1016D000E5520101F86BF96B0101FA69FB6900D071
:1016E000E552E552E7CFD9FF1200D9CFE6FFE1CFAF
:1016F000D9FFE652FE0EDB500F0805E20F0EF36E27
:10170000FE0EF3CFDBFFFD0EDB50010805E2010EFC
:10171000F36EFD0EF3CFDBFFFD0EDB0403E1400EA5
:10172000DF6E01D0DF6AFE0EDB50DF26FE0EDBCF60
:10173000F8F1FD0EDBCFF9F1800EDF24E66EE66AEC
:1017400029DFE552E552030EE66EE66AE66AE66ACE
:1017500078EC12F0E552E552E552E552E552E552D9
:10176000E7CFD9FF1200D9CFE6FFE1CFD9FFFE0EB8
:10177000DB50080A28E0050A1AE0060A18E0010A08
:1017800016E0060A0AE00101F82B100EF85D2AE1C6
:10179000F86BF9051FE1F96B1ED0010EE66EE66AE3
:1017A000F9DEE552E5520101F86BF96B24D0010135
:1017B000F86B010EF96FF9C1E6FFF8C1E6FF95DF9E
:1017C000E552E55218D0100EE66EE66AE3DEE55209
:1017D000E55211D0F92BF9C1E6FFF8C1E6FF85DF2C
:1017E000E552E552FE0EDBCFE6FF010EE66ED2DEDD
:1017F000E552E55200D0010EF36EF46A00D0E552D6
:06180000E7CFD9FF120042
:0A180600FF0EE3CFEAFFE552FF0EEC
:10181000E3CFE9FFE552E66AE66AD9CFE6FFDACF21
:10182000E6FFFC0EE124D96EFF0EE220DA6EE66AD6
:10183000E66AE66A200EEF5C06E0090EEF5C03E064
:10184000EF6603D03FD0EE50F5D72D0EEF5C03E1ED
:10185000FF0EE32A03D02B0EEF5C01E1EE502F0EBA
:10186000EF6424D03A0EEF6021D0D890F90EE33621
:10187000FA0EE336FD0EDECFE3FFFE0EDDCFE3FF13
:10188000D890F90EE336FA0EE336D890F90EE33627
:10189000FA0EE336FD0EE350DE26FE0EE350DD22A7
:1018A000300EEE5CDE26000EDD22D9D7FF0EE3CF30
:1018B000E8FFE85207E0F90EE31EE32AFA0ED8B477
:1018C000E306E31EE552E552E552FF0EE3CFDAFFF1
:1018D000E552FF0EE3CFD9FFE552E1CFE9FFE2CFBA
:1018E000EAFFED52ED52EECFF3FFEFCFF4FF12001F
:1018F000FF0EE3CFEAFFE552FF0EE3CFE9FFE5522B
:10190000E66AE66AE66AE66AD9CFE6FFDACFE6FF7C
:10191000FA0EE124D96EFF0EE220DA6EE66AE66A7C
:10192000E66AE66AE66A200EEF5C06E0090EEF5C06
:1019300003E0EF6603D06BD0EE50F5D72D0EEF5CD1
:1019400003E1FF0EE32A03D02B0EEF5C01E1EE5022
:101950002F0EEF6444D03A0EEF6041D0D890F50ED0
:10196000E336F60EE336F70EE336F80EE336FB0EFB
:10197000DECFE3FFFC0EDECFE3FFFD0EDECFE3FFA5
:10198000FE0EDDCFE3FFDD52DD52D890F50EE336DB
:10199000F60EE336F70EE336F80EE336D890F50E82
:1019A000E336F60EE336F70EE336F80EE336FB0EBB
:1019B000E350DE26FC0EE350DE22FD0EE350DE2275
:1019C000FE0EE350DD22DD52DD52300EEE5CDE26EF
:1019D000000EDE22DE22DD22DD52DD52B9D7FF0EFF
:1019E000E3CFE8FFE85213E0F50EE31EF60EE31E28
:1019F000F70EE31EF80EE31EF50EE32A08E1F60EDD
:101A0000E32A05E1F70EE32A02E1F80EE32AE552A4
:101A1000E552E552E552E552D9CFE9FFDACFEAFFC8
:101A2000EECF04F0EECF05F0EECF06F0EFCF07F0EB
:101A3000FF0EE3CFDAFFE552FF0EE3CFD9FFE55209
:061A4000E552E552120020
:0A1A46000101FC0501E124D0A00E0F
:101A5000E66EE66AE668000EE66E020EE66ED9EC09
:101A60000FF0146E050EE15E14500201A06BA16B25
:101A7000A26BA36B780ECA6E7C0ECB6E3F0EF21675
:101A80009D829F829E92D08EC00EF212CA84010166
:101A9000010EFC6F00D01200A0C204F0A1C205F03C
:101AA000A2C206F0A3C207F000D012000201A02BD0
:101AB000000EA123A223A3231200D9CFE6FFE1CF7A
:101AC000D9FFE6520101FC5101E1BDDF010EDF6EDD
:101AD000DF50146E156A200E145C000E155843E298
:101AE000DF50050DF3CFE9FFF4CFEAFF000EE92642
:101AF000020EEA22EF50FF0834E1DF50050DF3CF6C
:101B0000E9FFF4CFEAFF000EE926020EEA22DFCF5A
:101B1000EFFFD950FB0FE96EFF0EDA20EA6EEE50B0
:101B20000201A025146EEE50A121156EEE50A221E7
:101B3000166EEE50A321176EDF50050DF3CFE9FFAF
:101B4000F4CFEAFF000EE926020EEA22EE5214C09C
:101B5000EEFF15C0EEFF16C0EEFF17C0EEFFDF5020
:101B600019D0DF2AB5D7DFCF00F2D950FB0FE96ECD
:101B7000FF0EDA20EA6EEE500201A025016FEE5052
:101B8000A121026FEE50A221036FEE50A321046F3A
:101B9000000E00D0E552E552E7CFD9FF1200D9CFB1
:101BA000E6FFE1CFD9FF0101FC5101E14CDFFD0E61
:101BB000DBCFE9FFFE0EDBCFEAFFEF50146E156AB4
:101BC000200ED8801454000E155401E21FD0050ECB
:101BD000E66EE66AE668FD0EDBCFE9FFFE0EDBCFC0
:101BE000EAFFEF50050DF3CF14F0F4CF15F0000E1F
:101BF0001426020E152214C0E6FF15C0E6FFD9EC2C
:101C00000FF0166E050EE15E165000D0E552E7CFDC
:101C1000D9FF1200D9CFE6FFE1CFD9FF0101FC5176
:101C200001E111DFFE0EDB50146E156A200ED88024
:101C30001454000E155402E2010E1AD0FE0EDB50B1
:101C4000050DF3CFE9FFF4CFEAFF000EE926020EFF
:101C5000EA22EE520201A051EE5CA151EE58A251CF
:101C6000EE58A351EE5802E2010E02D0000E00D051
:081C7000E552E7CFD9FF120095
:081C7800D9CFE6FFE1CFD9FF4F
:101C8000110EE126F6EC0AF023EC0DF023EC0DF03A
:101C90003FEC06F0C90EE66E240EE66E000EE66E10
:101CA0007CEC11F0E552E552E55282EC08F0DF6E73
:101CB000DF50050A6AE0010A55E0070A40E0010A20
:101CC0002BE0030A16E0010A01E072D0BE0EE66EB8
:101CD000240EE66E000EE66ED950010FE66E000E81
:101CE000DA20E66ED7EC10F0146E050EE15E1450AB
:101CF00060D0B30EE66E240EE66E000EE66ED9508E
:101D0000010FE66E000EDA20E66ED7EC10F0146ECE
:101D1000050EE15E14504DD0A80EE66E240EE66E60
:101D2000000EE66ED950010FE66E000EDA20E66E68
:101D3000D7EC10F0146E050EE15E14503AD09D0EF3
:101D4000E66E240EE66E000EE66ED950010FE66ECA
:101D5000000EDA20E66ED7EC10F0146E050EE15E90
:101D6000145027D0920EE66E240EE66E000EE66E3C
:101D7000D950010FE66E000EDA20E66ED7EC10F0B7
:101D8000146E050EE15E145014D0870EE66E240E1C
:101D9000E66E000EE66ED950010FE66E000EDA20F8
:101DA000E66ED7EC10F0146E050EE15E145001D013
:101DB000DF68FF0EDF5C12E0D950010FE66E000E07
:101DC000DA20E66E840EE66E240EE66E000EE66EF7
:101DD0007CEC11F0146E050EE15E145066D700D055
:101DE000110EE15C02E2E16AE552E16EE552E7CFF5
:041DF000D9FF120005
:0C1DF400D9CFE6FFE1CFD9FF030EE126B6
:101E00003F0EF216CF0E9E169D169F16790EAB163C
:101E1000FD0EDB50146E156A080ED8801454000EA7
:101E2000155405E2040EF36EFD0EF3CFDBFFFC0E3E
:101E3000DB50010802E2FC0EDB6AFB0EDB500208FD
:101E400002E2FB0EDB6AFD0EDBCFF1F1FB0EDBCF16
:101E5000F3F1FC0EDBCFF2F10101F151E96EEA6A18
:101E6000D890E936EA36D40EE926010EEA22EECF02
:101E7000DEFFEDCFDDFFDF50AF6E010EDB50B06E49
:101E8000C00E9412B8869E8A9D8A900EAB12C00E28
:101E9000F212F80EDBCF14F0F90EDBCF15F0FA0ECC
:101EA000DBCF16F014501510161009E0F80EDBCF3A
:101EB000EEF1F90EDBCFEFF1FA0EDBCFF0F1030E0E
:101EC000E15C03E200D0E16AE552E16EE552E7CF62
:101ED000D9FF12000101F15100D012000101F251AD
:101EE00000D012000101F35100D01200AE5000D01A
:101EF0001200D9CFE6FFE1CFD9FF9E50100B04E1CD
:101F0000AC50020B01E1F9D7FE0EDB50AD6E9E50D6
:101F1000100B04E1AC50020B01E1F9D7050EE66E9F
:101F200065EC13F0E552E552E7CFD9FF1200AB980C
:101F3000AB9E9E9A9D9A00D01200AB88AB8E9D8A74
:101F40009EAA0AD0ABA402D0AB94FAD7ABA202D01F
:0C1F5000AB92F6D7CBDFF4D700D0120024
:041F5C00D9CFE6FFF4
:101F6000DACFE6FFFA0EE3CFD9FFFB0EE3CFDAFFBD
:101F7000FC0EE3CFE9FFFD0EE3CFEAFFE9CFF3FF6D
:101F8000EACFF4FFF80EE35003E1F90EE35008E066
:101F9000F80EE30602E2F90EE306DECFEEFFF2D71B
:101FA000FF0EE3CFDAFFE552FF0EE3CFD9FFE55294
:101FB0001200FE0EE3CFE9FFFF0EE3CFEAFFE9CF09
:101FC000F3FFEACFF4FFFB0EE35003E1FC0EE35016
:101FD00009E0FB0EE30602E2FC0EE306FD0EE35011
:101FE000EE6EF1D71200FE0EE3CFE9FFFF0EE3CF56
:101FF000EAFFFD0EE350EF5C05E0EE66FAD7F36A08
:10200000F46A04D0E9CFF3FFEACFF4FF1200FB0E2D
:10201000E3CFF6FFFC0EE3CFF7FFFD0EE3CFF8FFB3
:10202000FE0EE3CFE9FFFF0EE3CFEAFFF90EE35028
:1020300003E1FA0EE3500BE0F90EE30602E2FA0EBA
:10204000E3060900F550EF5C02E1EE66EFD71200FF
:10205000FE0EE3CFE9FFFF0EE3CFEAFFF36AF46A77
:10206000EE5203E0F34AF42AFBD71200FF0EE3CF4F
:10207000F8FFE552FF0EE3CFF7FFE552FF0EE3CF87
:10208000F6FFE552E66AE66AE66A0900F55209E0FB
:10209000FD0EE32A05E1FE0EE32A02E1FF0EE32A2C
:1020A000F4D7FD0EE3CF05F0FE0EE3CF06F0FF0EF2
:0620B000E3CF07F012006F
:0A20B600DACFE4FFE2CFDAFFE9CF52
:1020C000E4FFEACFE4FFF6CFE4FFF7CFE4FFF8CF79
:1020D000E4FFF5CFE4FFF3CFE4FFF4CFE4FFFACF62
:1020E000E4FFFBCFE4FF00EE00F0140EE80403E38E
:1020F000EECFE4FFFBD700EE14F0070EE80403E395
:10210000EECFE4FFFBD7E6529EA203D056EC0DF0D3
:102110009E929EAA1AD0ABA403D076EC0FF0F9D70A
:10212000ABA204D0AB780000AB78F3D70101EE513D
:10213000EF11F01109E007D0F0C1FBFFEFC1FAFF8A
:102140000101EE51F96EF8DFE4D7E55200EE1AF026
:10215000070EE80403E3E5CFEDFFFBD700EE13F035
:10216000140EE80403E3E5CFEDFFFBD7E5CFFBFF5B
:10217000E5CFFAFFE5CFF4FFE5CFF3FFE5CFF5FFBD
:10218000E5CFF8FFE5CFF7FFE5CFF6FFE5CFEAFFB4
:10219000E5CFE9FFE5CFDAFF1100DACFE4FFE2CFC8
:0E21A000DAFFE65200D0E552E5CFDAFF11007B
:0221AE00D9CF87
:1021B000E6FFDACFE6FFE1CFD9FFE2CFDAFFE65262
:1021C000E652E652E652D950F90F146EFF0EDA20AD
:1021D000156E020E14C0DBFF030E15C0DBFF020EEE
:1021E000DBCFE6FF030EDBCFE6FFF90EDBCFE6FF2A
:1021F000FA0EDBCFE6FFFB0EDBCFE6FFD950FC0F7C
:10220000E66EFF0EDA20E66E44EC00F0146E070E68
:10221000E15C02E2E16AE552E16E1450F3CFDEFFC9
:10222000F4CFDDFFFC0EDBCFE9FFFD0EDBCFEAFFD5
:10223000EF6ADECF14F0DDCF15F014C0F3FF15C048
:10224000F4FF040EE15C02E2E16AE552E16EE55260
:0A225000E5CFDAFFE7CFD9FF120057
:06225A001E0EF66E000EE0
:10226000F76E000EF86E01010900F550E96F0900E4
:10227000F550EA6F03E1E96701D03DD00900F55060
:10228000E46F0900F550E56F0900F550E66F0900AD
:102290000900F550E96E0900F550EA6E09000900E1
:1022A0000900F550E76F0900F550E86F09000900D3
:1022B000F6CFEBF1F7CFECF1F8CFEDF1E4C1F6FF9B
:1022C000E5C1F7FFE6C1F8FF0101E75302E1E8537A
:1022D00007E00900F550EE6EE707F8E2E807F9D7E6
:1022E000EBC1F6FFECC1F7FFEDC1F8FF0101E90713
:0822F000000EEA5BBFD71200EB
:0822F800D9CFE6FFDACFE6FFC3
:10230000E1CFD9FFE2CFDAFFE652E652E652E652DB
:10231000D950FB0F146EFF0EDA20156E14C0DEFFCD
:10232000DD6EDECFE6FFDDCFE6FFFB0EDBCFE6FFA7
:10233000FC0EDBCFE6FFFD0EDBCFE6FFFAC1E6FFCA
:10234000FBC1E6FF44EC00F0146E070EE15C02E214
:10235000E16AE552E16E1450020EF3CFDBFF030E8B
:10236000F4CFDBFF020EDBCF14F0030EDBCF15F052
:1023700014C0F3FF15C0F4FF040EE15C02E2E16A51
:10238000E552E16EE552E5CFDAFFE7CFD9FF120063
:10239000D9CFE6FFDACFE6FFE1CFD9FFE2CFDAFF10
:1023A000FB0EDBCF14F0FC0EDBCF15F00001800E2E
:1023B00015141AE1FB0EDBCFE9FFFC0EDBCFEAFFC1
:1023C000EECFF3FFEDCFF4FFEE2A000EEF22F3CFB6
:1023D000E9FFF4CFEAFFFD0EDBCFEFFFEF50156A08
:1023E000F36E15C0F4FF10D0FB0EDB50FE0806E1C3
:1023F000FD0EDBCFE6FF57EC13F005D0FD0EDBCF73
:10240000E6FFBCEC0AF0E552E552E5CFDAFFE7CF94
:04241000D9FF1200DE
:0C24140004500B02F3CF00F0F4CF01F0F5
:102420000C02F3500126000EF420026E04500D023F
:10243000F3500226000EF420036E04500E02F350F7
:10244000032605500B02F3500126F4500222000E21
:10245000032205500C02F3500226F45003220550CB
:102460000D02F350032606500B02F3500226F450DF
:10247000032206500C02F350032607500B02F350C0
:04248000032612001D
:0C2484002573004750474C4C2070726FCD
:10249000740047505654472070726F740047505272
:1024A0004D432070726F740047504753562070722E
:1024B0006F740047504753412070726F740047504B
:1024C0004747412070726F74000C004750474C4CD6
:1024D000004750565447004750524D43004750471D
:0F24E0005356004750475341004750474741006C
:1024F000D9CFE6FFE1CFD9FFE652D950FB0FE96E05
:10250000FF0EDA20EA6EEECFE6FFEECFE6FFEECF6B
:10251000E6FFEFCFE6FF5DEC0DF0E552E552E55248
:10252000E552DF6EDFCFE6FF0AEC0EF0E552000960
:1025300001E1F8D7D9CFE6FFDACFE6FFCFEC0DF017
:10254000E552E55200D0E552E552E7CFD9FF12003F
:1025500007C013F006C012F006500D02F4CF05F0CC
:10256000F3CF04F007500E02F4CF07F0F3CF06F0DC
:102570000D02F3500526F4500622E86A0722125095
:102580000E02F3500526F4500622E86A07220EAE2A
:10259000CEEF12F01250065E1350075A13AE000C25
:0A25A0000D50065E0E50075A000CA5
:0625AA00D9CFE6FFE1CFEE
:1025B000D9FFE652FE0EDBCFE6FFE66AFFEC12F033
:1025C000E552E552F350DF6E300EDF5C07E3DF507B
:1025D000390804E3300EDF5C0DD00AD0410EDF5C19
:1025E00007E3DF50460804E3410EDF5C0A0F02D028
:0E25F000000E00D0E552E552E7CFD9FF1200F1
:0225FE00FF0ECE
:10260000E124E96EFF0EE220EA6EEDCFF4FFEFCF9A
:10261000F3FFF46607D0600EF36404D07B0EF36022
:1026200001D0F39A1200F36AF46AFF0EE124E96E16
:10263000FF0EE220EA6EED6607D02F0EEF6404D0A5
:0A2640003A0EEF6001D0F32A1200F9
:06264A00036A026A016A46
:10265000006A200EE76ED890043605360636073637
:1026600000360136023603360B50005C0C50015820
:102670000D5002580E50035809E30B50005E0C50E9
:10268000015A0D50025A0E50035A042AE72EE4D77D
:02269000120036
:0E2692001EEE00F02EEE00F0F86A0A9C2DEC11
:0E26A00011F003EC00F03CEC0EF0FBD7120042
:0226AE00FF0E1D
:1026B000E350ACBA04D0AF6AAB8EAC8A949CACA2A7
:0A26C000FED7AD6EF36EF46A12004F
:0626CA00FF0EE3501B6E41
:1026D0001B0E00D001D0200EE76EE72EFED71B2E7A
:0626E000FAD700D0120041
:0A26E60030313233343536373839DD
:0726F000616263646566008E
:0126F70000E2
:0826F80000EE00F00F0EEE6A87
:06270000EA62FDD71200A1
:0A2706002C010000B004000060097F
:10271000000080250000004B00000096000000E152
:10272000000000C201000A1A82064003CF006700C1
:062730003300220010003E
:0A2736000404010401010101010186
:10274000010101014E4E544E54544E4E4E544E54BF
:102750004E4E040104010401014E544E544E544E99
:102760000101010101010101010101010101010159
:10277000010154544E4E4E4E4E4E4E4E4E4E4E4E07
:102780004E4E4E4E04010401040102020601014EA8
:10279000544E544E544E4E54544E02010201010107
:1027A0000101014E544E544E544E544E0E12000B25
:0B27B00009070000000001000100000C
:020000040030CA
:0100010001FD
:0100020003FA
:010003001EDE
:010005008179
:010006008178
:00000001FF
