:020000040000FA
:040000000034003494
:0C000400831203170530A9004230AA0047
:10001000AA0B0828A90B0628080083120317AB00B7
:100020000220AB0B10280800831203170130AB002D
:10003000F330AC000220AC03FF302C06031D1A285D
:10004000AB03FF302B06031D1A2808008316031389
:10005000063086008312031309308600080036211B
:1000600083120317A90083120317AA00AA0EF03007
:10007000AA052A1AAA15AA1A2A152A1BAA14AA1B03
:100080002A14AA0EF030AA050930AA042A088312FD
:10009000031386000000000000000000861100002D
:1000A0000000000000008615831203172908831240
:1000B0000317AA00F030AA052A1AAA15AA1A2A15A7
:1000C0002A1BAA14AA1B2A14AA0EF030AA0509306A
:1000D000AA042A088312031386000000000000000F
:1000E00000000610000000000000000006140800D8
:1000F00083120317A00005300D20200E0F39831244
:10010000031386000000061600000000061200001F
:100110008312031720080F3983120313860000008F
:1001200006160000000006120000080083120317E4
:10013000A00005300D20200E0F3983120313860016
:10014000061700000000000006160000000006125E
:10015000000000008312031720080F3983120313D5
:1001600086000617000000000000061600000000D0
:1001700006120000061308008316031300308600E1
:10018000831203138612CF2028307820083078207D
:1001900001307820063078200C3078200800643058
:1001A0000D200330831203138600000006160000A2
:1001B00000000612000040300D20033083120313AC
:1001C0008600000006160000000006120000203025
:1001D0000D20033083120313860000000616000072
:1001E00000000612000020300D200230831203139D
:1001F0008600000006160000000006120000103005
:100200000D200800080083120317A0000D302006FF
:1002100003190B291129831203170130A4000030A0
:100220001621831203172008962008008312031753
:10023000A00083120317240803191F2924298312FD
:1002400003172008003E2929831203172008403E87
:10025000292980387820080083120317A207031881
:10026000A10A21081F398A0022088200831203177D
:10027000A300633C031CFF34831203170A30A4005D
:10028000831203172308952183120317A300031079
:10029000A30D0310A30D0310A30D0310A30D23083A
:1002A000831203172404080083120317A300831288
:1002B00003170A30A40083120317A30E0F3023057F
:1002C000A30E6D2183120317A400831203170F30AE
:1002D0002305831203172407080083120317AA01BA
:1002E000AB0183120317A90183120317A500831220
:1002F0000317290883120317240203198B29831279
:100300000317250883120317AB070318AA0A8312E1
:100310000317A90A7729831203172A0883120317E0
:10032000A400831203172B08080083120317A901E6
:1003300083120317A5008312031724020319C2298D
:100340000318C729831203172508831203172408EB
:10035000250283120317A500831203172408250220
:1003600083120317A90A0319B829031CB829A22963
:1003700083120317250883120317A400831203179F
:100380002908080083120317A40101300800831212
:100390000317250883120317A40003010800831222
:1003A00003138B13831203170A30A8008312031759
:1003B000A601A70183160313813081008312031362
:1003C00007308100831203130B138B168B17080061
:1003D000831203130730810083120317A70A03193E
:1003E000A60AFA3027060319F629042A0030260641
:1003F0000319FB29042AA601A70183120317A80ADF
:0C040000643028060319A8010B11080045
:00000001FF
